{
  "contractName": "ForwardRegistration",
  "abi": [
    {
      "constant": true,
      "inputs": [
        {
          "name": "",
          "type": "address"
        }
      ],
      "name": "forwardService",
      "outputs": [
        {
          "name": "nonce",
          "type": "uint256"
        },
        {
          "name": "destination",
          "type": "address"
        },
        {
          "name": "startEpoch",
          "type": "uint256"
        }
      ],
      "payable": false,
      "stateMutability": "view",
      "type": "function"
    },
    {
      "anonymous": false,
      "inputs": [
        {
          "indexed": true,
          "name": "owner",
          "type": "address"
        },
        {
          "indexed": true,
          "name": "alternative",
          "type": "address"
        },
        {
          "indexed": false,
          "name": "epoch",
          "type": "uint256"
        }
      ],
      "name": "RegisterForwardService",
      "type": "event"
    },
    {
      "anonymous": false,
      "inputs": [
        {
          "indexed": true,
          "name": "owner",
          "type": "address"
        }
      ],
      "name": "DeregisterForwardService",
      "type": "event"
    },
    {
      "constant": false,
      "inputs": [
        {
          "name": "owner",
          "type": "address"
        },
        {
          "name": "nonce",
          "type": "uint256"
        },
        {
          "name": "startEpoch",
          "type": "uint256"
        },
        {
          "name": "signature",
          "type": "bytes"
        }
      ],
      "name": "registerForwardService",
      "outputs": [],
      "payable": false,
      "stateMutability": "nonpayable",
      "type": "function"
    },
    {
      "constant": false,
      "inputs": [
        {
          "name": "owner",
          "type": "address"
        },
        {
          "name": "nonce",
          "type": "uint256"
        },
        {
          "name": "signature",
          "type": "bytes"
        }
      ],
      "name": "deregisterForwardService",
      "outputs": [],
      "payable": false,
      "stateMutability": "nonpayable",
      "type": "function"
    },
    {
      "constant": true,
      "inputs": [
        {
          "name": "owner",
          "type": "address"
        },
        {
          "name": "endEpoch",
          "type": "uint256"
        }
      ],
      "name": "getForwardAddress",
      "outputs": [
        {
          "name": "",
          "type": "address"
        }
      ],
      "payable": false,
      "stateMutability": "view",
      "type": "function"
    }
  ],
  "bytecode": "0x608060405234801561001057600080fd5b50611317806100206000396000f300608060405260043610610062576000357c0100000000000000000000000000000000000000000000000000000000900463ffffffff1680631265a7bf146100675780637d8d7f8c146100f4578063a91ff74214610187578063b924975c14610218575b600080fd5b34801561007357600080fd5b506100b2600480360381019080803573ffffffffffffffffffffffffffffffffffffffff169060200190929190803590602001909291905050506102b5565b604051808273ffffffffffffffffffffffffffffffffffffffff1673ffffffffffffffffffffffffffffffffffffffff16815260200191505060405180910390f35b34801561010057600080fd5b50610185600480360381019080803573ffffffffffffffffffffffffffffffffffffffff16906020019092919080359060200190929190803590602001908201803590602001908080601f016020809104026020016040519081016040528093929190818152602001838380828437820191505050505050919291929050505061040d565b005b34801561019357600080fd5b506101c8600480360381019080803573ffffffffffffffffffffffffffffffffffffffff1690602001909291905050506106af565b604051808481526020018373ffffffffffffffffffffffffffffffffffffffff1673ffffffffffffffffffffffffffffffffffffffff168152602001828152602001935050505060405180910390f35b34801561022457600080fd5b506102b3600480360381019080803573ffffffffffffffffffffffffffffffffffffffff1690602001909291908035906020019092919080359060200190929190803590602001908201803590602001908080601f01602080910402602001604051908101604052809392919081815260200183838082843782019150505050505091929192905050506106f9565b005b60008073ffffffffffffffffffffffffffffffffffffffff166000808573ffffffffffffffffffffffffffffffffffffffff1673ffffffffffffffffffffffffffffffffffffffff16815260200190815260200160002060010160009054906101000a900473ffffffffffffffffffffffffffffffffffffffff1673ffffffffffffffffffffffffffffffffffffffff161415801561039557506000808473ffffffffffffffffffffffffffffffffffffffff1673ffffffffffffffffffffffffffffffffffffffff168152602001908152602001600020600201548210155b15610403576000808473ffffffffffffffffffffffffffffffffffffffff1673ffffffffffffffffffffffffffffffffffffffff16815260200190815260200160002060010160009054906101000a900473ffffffffffffffffffffffffffffffffffffffff169050610407565b8290505b92915050565b610597838361041b856109bc565b61042433610b13565b61042d30610b13565b6040516020018084805190602001908083835b6020831015156104655780518252602082019150602081019050602083039250610440565b6001836020036101000a038019825116818451168082178552505050505050905001807f4920617574686f72697a65000000000000000000000000000000000000000000815250600b0183805190602001908083835b6020831015156104e057805182526020820191506020810190506020830392506104bb565b6001836020036101000a038019825116818451168082178552505050505050905001807f20746f206465726567697374657220696e00000000000000000000000000000081525060110182805190602001908083835b60208310151561055b5780518252602082019150602081019050602083039250610536565b6001836020036101000a038019825116818451168082178552505050505050905001935050505060405160208183030381529060405284610f23565b606060405190810160405280838152602001600073ffffffffffffffffffffffffffffffffffffffff16815260200160008152506000808573ffffffffffffffffffffffffffffffffffffffff1673ffffffffffffffffffffffffffffffffffffffff1681526020019081526020016000206000820151816000015560208201518160010160006101000a81548173ffffffffffffffffffffffffffffffffffffffff021916908373ffffffffffffffffffffffffffffffffffffffff160217905550604082015181600201559050508273ffffffffffffffffffffffffffffffffffffffff167fe8bba24decf2326dc8383ebb1ed5b74dc04ffa979dafa42a948d3104e2b4c26460405160405180910390a2505050565b60006020528060005260406000206000915090508060000154908060010160009054906101000a900473ffffffffffffffffffffffffffffffffffffffff16908060020154905083565b6108838484610707866109bc565b61071033610b13565b61071930610b13565b6040516020018084805190602001908083835b602083101515610751578051825260208201915060208101905060208303925061072c565b6001836020036101000a038019825116818451168082178552505050505050905001807f4920617574686f72697a65000000000000000000000000000000000000000000815250600b0183805190602001908083835b6020831015156107cc57805182526020820191506020810190506020830392506107a7565b6001836020036101000a038019825116818451168082178552505050505050905001807f20746f20726567697374657220696e0000000000000000000000000000000000815250600f0182805190602001908083835b6020831015156108475780518252602082019150602081019050602083039250610822565b6001836020036101000a038019825116818451168082178552505050505050905001935050505060405160208183030381529060405284610f23565b6060604051908101604052808481526020013373ffffffffffffffffffffffffffffffffffffffff168152602001838152506000808673ffffffffffffffffffffffffffffffffffffffff1673ffffffffffffffffffffffffffffffffffffffff1681526020019081526020016000206000820151816000015560208201518160010160006101000a81548173ffffffffffffffffffffffffffffffffffffffff021916908373ffffffffffffffffffffffffffffffffffffffff160217905550604082015181600201559050503373ffffffffffffffffffffffffffffffffffffffff168473ffffffffffffffffffffffffffffffffffffffff167f574d7207b1b4e1894e873337edacf700945a4822703fdf98eef2026fcfdb793b846040518082815260200191505060405180910390a350505050565b60606000806060600080861415610a0a576040805190810160405280600181526020017f30000000000000000000000000000000000000000000000000000000000000008152509450610b0a565b8593505b600084141515610a34578280600101935050600a84811515610a2c57fe5b049350610a0e565b826040519080825280601f01601f191660200182016040528015610a675781602001602082028038833980820191505090505b5091506001830390505b600086141515610b0657600a86811515610a8757fe5b066030017f010000000000000000000000000000000000000000000000000000000000000002828280600190039350815181101515610ac257fe5b9060200101907effffffffffffffffffffffffffffffffffffffffffffffffffffffffffffff1916908160001a905350600a86811515610afe57fe5b049550610a71565b8194505b50505050919050565b6060600060608060008573ffffffffffffffffffffffffffffffffffffffff1660010293506040805190810160405280601081526020017f30313233343536373839616263646566000000000000000000000000000000008152509250602b6040519080825280601f01601f191660200182016040528015610ba45781602001602082028038833980820191505090505b5091507f2000000000000000000000000000000000000000000000000000000000000000826000815181101515610bd757fe5b9060200101907effffffffffffffffffffffffffffffffffffffffffffffffffffffffffffff1916908160001a9053507f3000000000000000000000000000000000000000000000000000000000000000826001815181101515610c3757fe5b9060200101907effffffffffffffffffffffffffffffffffffffffffffffffffffffffffffff1916908160001a9053507f7800000000000000000000000000000000000000000000000000000000000000826002815181101515610c9757fe5b9060200101907effffffffffffffffffffffffffffffffffffffffffffffffffffffffffffff1916908160001a905350600090505b6014811015610f175782600485600c8401602081101515610ce957fe5b1a7f0100000000000000000000000000000000000000000000000000000000000000027effffffffffffffffffffffffffffffffffffffffffffffffffffffffffffff19169060020a90047f01000000000000000000000000000000000000000000000000000000000000009004815181101515610d6357fe5b9060200101517f010000000000000000000000000000000000000000000000000000000000000090047f0100000000000000000000000000000000000000000000000000000000000000028260028302600301815181101515610dc257fe5b9060200101907effffffffffffffffffffffffffffffffffffffffffffffffffffffffffffff1916908160001a90535082600f7f01000000000000000000000000000000000000000000000000000000000000000285600c8401602081101515610e2857fe5b1a7f010000000000000000000000000000000000000000000000000000000000000002167f01000000000000000000000000000000000000000000000000000000000000009004815181101515610e7b57fe5b9060200101517f010000000000000000000000000000000000000000000000000000000000000090047f0100000000000000000000000000000000000000000000000000000000000000028260028302600401815181101515610eda57fe5b9060200101907effffffffffffffffffffffffffffffffffffffffffffffffffffffffffffff1916908160001a9053508080600101915050610ccc565b81945050505050919050565b8373ffffffffffffffffffffffffffffffffffffffff16610f4c610f4684611095565b836111f3565b73ffffffffffffffffffffffffffffffffffffffff16141515610fd7576040517f08c379a00000000000000000000000000000000000000000000000000000000081526004018080602001828103825260118152602001807f696e76616c6964207369676e617475726500000000000000000000000000000081525060200191505060405180910390fd5b6000808573ffffffffffffffffffffffffffffffffffffffff1673ffffffffffffffffffffffffffffffffffffffff168152602001908152602001600020600001548311151561108f576040517f08c379a00000000000000000000000000000000000000000000000000000000081526004018080602001828103825260108152602001807f6e6f6e636520697320696e76616c69640000000000000000000000000000000081525060200191505060405180910390fd5b50505050565b60006110a182516109bc565b8260405160200180807f19457468657265756d205369676e6564204d6573736167653a0a000000000000815250601a0183805190602001908083835b60208310151561110257805182526020820191506020810190506020830392506110dd565b6001836020036101000a03801982511681845116808217855250505050505090500182805190602001908083835b6020831015156111555780518252602082019150602081019050602083039250611130565b6001836020036101000a038019825116818451168082178552505050505050905001925050506040516020818303038152906040526040518082805190602001908083835b6020831015156111bf578051825260208201915060208101905060208303925061119a565b6001836020036101000a03801982511681845116808217855250505050505090500191505060405180910390209050919050565b6000806000806041855114151561120d57600093506112e2565b6020850151925060408501519150606085015160001a9050601b8160ff16101561123857601b810190505b601b8160ff16141580156112505750601c8160ff1614155b1561125e57600093506112e2565b600186828585604051600081526020016040526040518085600019166000191681526020018460ff1660ff1681526020018360001916600019168152602001826000191660001916815260200194505050505060206040516020810390808403906000865af11580156112d5573d6000803e3d6000fd5b5050506020604051035193505b505050929150505600a165627a7a72305820c5edd14ff2b88b75d517fdf26bbf6f93b3e8cd35ed9c52ef1e6bc571527d0c0e0029",
  "source": "pragma solidity ^0.4.24;\n\ncontract ForwardRegistration {\n    struct Forward {\n        uint256 nonce;\n        address destination;\n        uint256 startEpoch;\n    }\n\n    mapping(address => Forward) public forwardService;\n\n    event RegisterForwardService(address indexed owner, address indexed alternative, uint256 epoch);\n    event DeregisterForwardService(address indexed owner);\n\n    function registerForwardService(address owner, uint256 nonce, uint256 startEpoch, bytes signature) public {\n        checkSignAndNonce(\n            owner,\n            nonce,\n            abi.encodePacked(uint2str(nonce), \"I authorize\", addrToString(msg.sender), \" to register in\", addrToString(address(this))),\n            signature\n        );\n        forwardService[owner] = Forward(nonce, msg.sender, startEpoch);\n        emit RegisterForwardService(owner, msg.sender, startEpoch);\n    }\n\n    function deregisterForwardService(address owner, uint256 nonce, bytes signature) public {\n        checkSignAndNonce(\n            owner,\n            nonce,\n            abi.encodePacked(uint2str(nonce), \"I authorize\", addrToString(msg.sender), \" to deregister in\", addrToString(address(this))),\n            signature\n        );\n        forwardService[owner] = Forward(nonce, address(0), 0);\n        emit DeregisterForwardService(owner);\n    }\n\n    function getForwardAddress(address owner, uint256 endEpoch) public view returns (address) {\n        if (forwardService[owner].destination != address(0) && endEpoch >= forwardService[owner].startEpoch) {\n            return forwardService[owner].destination;\n        }\n        return owner;\n    }\n\n    function checkSignAndNonce(address owner, uint256 nonce, bytes message, bytes signature) internal view {\n        require(recover(toEthPersonalSignedMessageHash(message), signature) == owner, \"invalid signature\");\n        require(nonce > forwardService[owner].nonce, \"nonce is invalid\");\n    }\n\n    function recover(bytes32 hash, bytes signature)\n        internal\n        pure\n        returns (address)\n    {\n        bytes32 r;\n        bytes32 s;\n        uint8 v;\n        // Check the signature length\n        if (signature.length != 65) {\n            return (address(0));\n        }\n        // Divide the signature in r, s and v variables with inline assembly.\n        assembly {\n            r := mload(add(signature, 0x20))\n            s := mload(add(signature, 0x40))\n            v := byte(0, mload(add(signature, 0x60)))\n        }\n        // Version of signature should be 27 or 28, but 0 and 1 are also possible versions\n        if (v < 27) {\n            v += 27;\n        }\n        // If the version is correct return the signer address\n        if (v != 27 && v != 28) {\n            return (address(0));\n        }\n        return ecrecover(hash, v, r, s);\n    }\n\n    function toEthPersonalSignedMessageHash(bytes _msg) internal pure returns (bytes32) {\n        return keccak256(abi.encodePacked(\"\\x19Ethereum Signed Message:\\n\", uint2str(_msg.length), _msg));\n    }\n\n    function uint2str(uint i) internal pure returns (string) {\n        if (i == 0) {\n            return \"0\";\n        }\n        uint j = i;\n        uint length;\n        while (j != 0){\n            length++;\n            j /= 10;\n        }\n        bytes memory b = new bytes(length);\n        uint k = length - 1;\n        while (i != 0){\n            b[k--] = byte(48 + i % 10);\n            i /= 10;\n        }\n        return string(b);\n    }\n\n    function addrToString(address _addr) internal pure returns(string) {\n        bytes32 value = bytes32(uint256(_addr));\n        bytes memory alphabet = \"0123456789abcdef\";\n\n        bytes memory str = new bytes(43);\n        str[0] = ' ';\n        str[1] = '0';\n        str[2] = 'x';\n        for (uint i = 0; i < 20; i++) {\n            str[3+i*2] = alphabet[uint(value[i + 12] >> 4)];\n            str[4+i*2] = alphabet[uint(value[i + 12] & 0x0f)];\n        }\n        return string(str);\n    }\n}",
  "sourcePath": "/Users/ququzone/Develop/projects/iotex/iotex-hermes/smartcontracts/contracts/ForwardRegistration.sol",
  "compiler": {
    "name": "solc",
    "version": "0.4.24+commit.e67f0147.Emscripten.clang"
  },
  "schemaVersion": "3.2.3",
  "updatedAt": "2020-09-24T07:26:56.089Z",
  "devdoc": {
    "methods": {}
  },
  "userdoc": {
    "methods": {}
  }
}