{
  "contractName": "Hermes",
  "abi": [
    {
      "constant": true,
      "inputs": [
        {
          "name": "",
          "type": "bytes32"
        }
      ],
      "name": "distributedAmount",
      "outputs": [
        {
          "name": "",
          "type": "uint256"
        }
      ],
      "payable": false,
      "stateMutability": "view",
      "type": "function"
    },
    {
      "constant": true,
      "inputs": [],
      "name": "forwardRegistration",
      "outputs": [
        {
          "name": "",
          "type": "address"
        }
      ],
      "payable": false,
      "stateMutability": "view",
      "type": "function"
    },
    {
      "constant": true,
      "inputs": [],
      "name": "multisender",
      "outputs": [
        {
          "name": "",
          "type": "address"
        }
      ],
      "payable": false,
      "stateMutability": "view",
      "type": "function"
    },
    {
      "constant": false,
      "inputs": [
        {
          "name": "addrs",
          "type": "address[]"
        }
      ],
      "name": "removeAddressesFromWhitelist",
      "outputs": [
        {
          "name": "success",
          "type": "bool"
        }
      ],
      "payable": false,
      "stateMutability": "nonpayable",
      "type": "function"
    },
    {
      "constant": false,
      "inputs": [
        {
          "name": "addr",
          "type": "address"
        }
      ],
      "name": "removeAddressFromWhitelist",
      "outputs": [
        {
          "name": "success",
          "type": "bool"
        }
      ],
      "payable": false,
      "stateMutability": "nonpayable",
      "type": "function"
    },
    {
      "constant": true,
      "inputs": [],
      "name": "analyticsEndpoint",
      "outputs": [
        {
          "name": "",
          "type": "string"
        }
      ],
      "payable": false,
      "stateMutability": "view",
      "type": "function"
    },
    {
      "constant": true,
      "inputs": [
        {
          "name": "",
          "type": "uint256"
        }
      ],
      "name": "endEpochs",
      "outputs": [
        {
          "name": "",
          "type": "uint256"
        }
      ],
      "payable": false,
      "stateMutability": "view",
      "type": "function"
    },
    {
      "constant": false,
      "inputs": [
        {
          "name": "addr",
          "type": "address"
        }
      ],
      "name": "addAddressToWhitelist",
      "outputs": [
        {
          "name": "success",
          "type": "bool"
        }
      ],
      "payable": false,
      "stateMutability": "nonpayable",
      "type": "function"
    },
    {
      "constant": true,
      "inputs": [
        {
          "name": "",
          "type": "bytes32"
        }
      ],
      "name": "distributedCount",
      "outputs": [
        {
          "name": "",
          "type": "uint256"
        }
      ],
      "payable": false,
      "stateMutability": "view",
      "type": "function"
    },
    {
      "constant": true,
      "inputs": [],
      "name": "owner",
      "outputs": [
        {
          "name": "",
          "type": "address"
        }
      ],
      "payable": false,
      "stateMutability": "view",
      "type": "function"
    },
    {
      "constant": true,
      "inputs": [
        {
          "name": "",
          "type": "address"
        }
      ],
      "name": "whitelist",
      "outputs": [
        {
          "name": "",
          "type": "bool"
        }
      ],
      "payable": false,
      "stateMutability": "view",
      "type": "function"
    },
    {
      "constant": true,
      "inputs": [],
      "name": "contractStartEpoch",
      "outputs": [
        {
          "name": "",
          "type": "uint256"
        }
      ],
      "payable": false,
      "stateMutability": "view",
      "type": "function"
    },
    {
      "constant": true,
      "inputs": [
        {
          "name": "",
          "type": "bytes32"
        },
        {
          "name": "",
          "type": "uint256"
        }
      ],
      "name": "distributions",
      "outputs": [
        {
          "name": "distributedCount",
          "type": "uint256"
        },
        {
          "name": "amount",
          "type": "uint256"
        }
      ],
      "payable": false,
      "stateMutability": "view",
      "type": "function"
    },
    {
      "constant": true,
      "inputs": [
        {
          "name": "",
          "type": "bytes32"
        },
        {
          "name": "",
          "type": "address"
        }
      ],
      "name": "recipientEpochTracker",
      "outputs": [
        {
          "name": "",
          "type": "uint256"
        }
      ],
      "payable": false,
      "stateMutability": "view",
      "type": "function"
    },
    {
      "constant": false,
      "inputs": [
        {
          "name": "addrs",
          "type": "address[]"
        }
      ],
      "name": "addAddressesToWhitelist",
      "outputs": [
        {
          "name": "success",
          "type": "bool"
        }
      ],
      "payable": false,
      "stateMutability": "nonpayable",
      "type": "function"
    },
    {
      "constant": false,
      "inputs": [
        {
          "name": "newOwner",
          "type": "address"
        }
      ],
      "name": "transferOwnership",
      "outputs": [],
      "payable": false,
      "stateMutability": "nonpayable",
      "type": "function"
    },
    {
      "inputs": [
        {
          "name": "_contractStartEpoch",
          "type": "uint256"
        },
        {
          "name": "_multisendAddress",
          "type": "address"
        },
        {
          "name": "_forwardRegistrationAddress",
          "type": "address"
        },
        {
          "name": "_analyticsEndpoint",
          "type": "string"
        }
      ],
      "payable": false,
      "stateMutability": "nonpayable",
      "type": "constructor"
    },
    {
      "anonymous": false,
      "inputs": [
        {
          "indexed": false,
          "name": "startEpoch",
          "type": "uint256"
        },
        {
          "indexed": false,
          "name": "endEpoch",
          "type": "uint256"
        },
        {
          "indexed": true,
          "name": "delegateName",
          "type": "bytes32"
        },
        {
          "indexed": false,
          "name": "numOfRecipients",
          "type": "uint256"
        },
        {
          "indexed": false,
          "name": "totalAmount",
          "type": "uint256"
        }
      ],
      "name": "Distribute",
      "type": "event"
    },
    {
      "anonymous": false,
      "inputs": [
        {
          "indexed": false,
          "name": "endEpoch",
          "type": "uint256"
        },
        {
          "indexed": false,
          "name": "delegateNames",
          "type": "bytes32[]"
        }
      ],
      "name": "CommitDistributions",
      "type": "event"
    },
    {
      "anonymous": false,
      "inputs": [
        {
          "indexed": false,
          "name": "addr",
          "type": "address"
        }
      ],
      "name": "WhitelistedAddressAdded",
      "type": "event"
    },
    {
      "anonymous": false,
      "inputs": [
        {
          "indexed": false,
          "name": "addr",
          "type": "address"
        }
      ],
      "name": "WhitelistedAddressRemoved",
      "type": "event"
    },
    {
      "anonymous": false,
      "inputs": [
        {
          "indexed": true,
          "name": "previousOwner",
          "type": "address"
        },
        {
          "indexed": true,
          "name": "newOwner",
          "type": "address"
        }
      ],
      "name": "OwnershipTransferred",
      "type": "event"
    },
    {
      "constant": true,
      "inputs": [],
      "name": "getEndEpochCount",
      "outputs": [
        {
          "name": "",
          "type": "uint256"
        }
      ],
      "payable": false,
      "stateMutability": "view",
      "type": "function"
    },
    {
      "constant": false,
      "inputs": [
        {
          "name": "_multisendAddress",
          "type": "address"
        }
      ],
      "name": "setMultisendAddress",
      "outputs": [],
      "payable": false,
      "stateMutability": "nonpayable",
      "type": "function"
    },
    {
      "constant": false,
      "inputs": [
        {
          "name": "_endpoint",
          "type": "string"
        }
      ],
      "name": "setAnalyticsEndpoint",
      "outputs": [],
      "payable": false,
      "stateMutability": "nonpayable",
      "type": "function"
    },
    {
      "constant": false,
      "inputs": [
        {
          "name": "delegateName",
          "type": "bytes32"
        },
        {
          "name": "endEpoch",
          "type": "uint256"
        },
        {
          "name": "recipients",
          "type": "address[]"
        },
        {
          "name": "amounts",
          "type": "uint256[]"
        }
      ],
      "name": "distributeRewards",
      "outputs": [],
      "payable": true,
      "stateMutability": "payable",
      "type": "function"
    },
    {
      "constant": false,
      "inputs": [
        {
          "name": "endEpoch",
          "type": "uint256"
        },
        {
          "name": "delegateNames",
          "type": "bytes32[]"
        }
      ],
      "name": "commitDistributions",
      "outputs": [],
      "payable": false,
      "stateMutability": "nonpayable",
      "type": "function"
    }
  ],
  "bytecode": "0x60806040523480156200001157600080fd5b50604051620025043803806200250483398101806040528101908080519060200190929190805190602001909291908051906020019092919080518201929190505050336000806101000a81548173ffffffffffffffffffffffffffffffffffffffff021916908373ffffffffffffffffffffffffffffffffffffffff160217905550620000ae336200015b640100000000026401000000009004565b508360028190555082600960006101000a81548173ffffffffffffffffffffffffffffffffffffffff021916908373ffffffffffffffffffffffffffffffffffffffff16021790555081600a60006101000a81548173ffffffffffffffffffffffffffffffffffffffff021916908373ffffffffffffffffffffffffffffffffffffffff160217905550806008908051906020019062000150929190620002d1565b505050505062000380565b60008060009054906101000a900473ffffffffffffffffffffffffffffffffffffffff1673ffffffffffffffffffffffffffffffffffffffff163373ffffffffffffffffffffffffffffffffffffffff16141515620001b957600080fd5b600160008373ffffffffffffffffffffffffffffffffffffffff1673ffffffffffffffffffffffffffffffffffffffff16815260200190815260200160002060009054906101000a900460ff161515620002cc5760018060008473ffffffffffffffffffffffffffffffffffffffff1673ffffffffffffffffffffffffffffffffffffffff16815260200190815260200160002060006101000a81548160ff0219169083151502179055507fd1bba68c128cc3f427e5831b3c6f99f480b6efa6b9e80c757768f6124158cc3f82604051808273ffffffffffffffffffffffffffffffffffffffff1673ffffffffffffffffffffffffffffffffffffffff16815260200191505060405180910390a1600190505b919050565b828054600181600116156101000203166002900490600052602060002090601f016020900481019282601f106200031457805160ff191683800117855562000345565b8280016001018555821562000345579182015b828111156200034457825182559160200191906001019062000327565b5b50905062000354919062000358565b5090565b6200037d91905b80821115620003795760008160009055506001016200035f565b5090565b90565b61217480620003906000396000f30060806040526004361061011d576000357c0100000000000000000000000000000000000000000000000000000000900463ffffffff1680630c60e2e1146101225780630d44e5191461016757806322c5f21e146101be57806324953eaa14610215578063286dd3f514610293578063529c95ff146102ee5780635e2a19971461037e5780637b9417c8146103bf5780637ec031841461041a5780638da5cb5b1461045f5780639b19251a146104b6578063a912d40514610511578063aa512a961461057a578063af210b041461062e578063ba15bc7414610671578063bb81e35b1461069c578063bc4283ca146106f2578063c3c4578614610762578063dca7626e146107c7578063e2ec6ec3146107f2578063f2fde38b14610870575b600080fd5b34801561012e57600080fd5b5061015160048036038101908080356000191690602001909291905050506108b3565b6040518082815260200191505060405180910390f35b34801561017357600080fd5b5061017c6108cb565b604051808273ffffffffffffffffffffffffffffffffffffffff1673ffffffffffffffffffffffffffffffffffffffff16815260200191505060405180910390f35b3480156101ca57600080fd5b506101d36108f1565b604051808273ffffffffffffffffffffffffffffffffffffffff1673ffffffffffffffffffffffffffffffffffffffff16815260200191505060405180910390f35b34801561022157600080fd5b5061027960048036038101908080359060200190820180359060200190808060200260200160405190810160405280939291908181526020018383602002808284378201915050505050509192919290505050610917565b604051808215151515815260200191505060405180910390f35b34801561029f57600080fd5b506102d4600480360381019080803573ffffffffffffffffffffffffffffffffffffffff1690602001909291905050506109c0565b604051808215151515815260200191505060405180910390f35b3480156102fa57600080fd5b50610303610b34565b6040518080602001828103825283818151815260200191508051906020019080838360005b83811015610343578082015181840152602081019050610328565b50505050905090810190601f1680156103705780820380516001836020036101000a031916815260200191505b509250505060405180910390f35b34801561038a57600080fd5b506103a960048036038101908080359060200190929190505050610bd2565b6040518082815260200191505060405180910390f35b3480156103cb57600080fd5b50610400600480360381019080803573ffffffffffffffffffffffffffffffffffffffff169060200190929190505050610bf5565b604051808215151515815260200191505060405180910390f35b34801561042657600080fd5b506104496004803603810190808035600019169060200190929190505050610d69565b6040518082815260200191505060405180910390f35b34801561046b57600080fd5b50610474610d81565b604051808273ffffffffffffffffffffffffffffffffffffffff1673ffffffffffffffffffffffffffffffffffffffff16815260200191505060405180910390f35b3480156104c257600080fd5b506104f7600480360381019080803573ffffffffffffffffffffffffffffffffffffffff169060200190929190505050610da6565b604051808215151515815260200191505060405180910390f35b34801561051d57600080fd5b50610578600480360381019080803590602001908201803590602001908080601f0160208091040260200160405190810160405280939291908181526020018383808284378201915050505050509192919290505050610dc6565b005b61062c6004803603810190808035600019169060200190929190803590602001909291908035906020019082018035906020019080806020026020016040519081016040528093929190818152602001838360200280828437820191505050505050919291929080359060200190820180359060200190808060200260200160405190810160405280939291908181526020018383602002808284378201915050505050509192919290505050610e38565b005b34801561063a57600080fd5b5061066f600480360381019080803573ffffffffffffffffffffffffffffffffffffffff169060200190929190505050611614565b005b34801561067d57600080fd5b506106866116b0565b6040518082815260200191505060405180910390f35b3480156106a857600080fd5b506106d56004803603810190808035600019169060200190929190803590602001909291905050506116b6565b604051808381526020018281526020019250505060405180910390f35b3480156106fe57600080fd5b5061076060048036038101908080359060200190929190803590602001908201803590602001908080602002602001604051908101604052809392919081815260200183836020028082843782019150505050505091929192905050506116e7565b005b34801561076e57600080fd5b506107b16004803603810190808035600019169060200190929190803573ffffffffffffffffffffffffffffffffffffffff1690602001909291905050506118f9565b6040518082815260200191505060405180910390f35b3480156107d357600080fd5b506107dc61191e565b6040518082815260200191505060405180910390f35b3480156107fe57600080fd5b506108566004803603810190808035906020019082018035906020019080806020026020016040519081016040528093929190818152602001838360200280828437820191505050505050919291929050505061192b565b604051808215151515815260200191505060405180910390f35b34801561087c57600080fd5b506108b1600480360381019080803573ffffffffffffffffffffffffffffffffffffffff1690602001909291905050506119d4565b005b60076020528060005260406000206000915090505481565b600a60009054906101000a900473ffffffffffffffffffffffffffffffffffffffff1681565b600960009054906101000a900473ffffffffffffffffffffffffffffffffffffffff1681565b6000806000809054906101000a900473ffffffffffffffffffffffffffffffffffffffff1673ffffffffffffffffffffffffffffffffffffffff163373ffffffffffffffffffffffffffffffffffffffff1614151561097557600080fd5b600090505b82518110156109ba576109a3838281518110151561099457fe5b906020019060200201516109c0565b156109ad57600191505b808060010191505061097a565b50919050565b60008060009054906101000a900473ffffffffffffffffffffffffffffffffffffffff1673ffffffffffffffffffffffffffffffffffffffff163373ffffffffffffffffffffffffffffffffffffffff16141515610a1d57600080fd5b600160008373ffffffffffffffffffffffffffffffffffffffff1673ffffffffffffffffffffffffffffffffffffffff16815260200190815260200160002060009054906101000a900460ff1615610b2f576000600160008473ffffffffffffffffffffffffffffffffffffffff1673ffffffffffffffffffffffffffffffffffffffff16815260200190815260200160002060006101000a81548160ff0219169083151502179055507ff1abf01a1043b7c244d128e8595cf0c1d10743b022b03a02dffd8ca3bf729f5a82604051808273ffffffffffffffffffffffffffffffffffffffff1673ffffffffffffffffffffffffffffffffffffffff16815260200191505060405180910390a1600190505b919050565b60088054600181600116156101000203166002900480601f016020809104026020016040519081016040528092919081815260200182805460018160011615610100020316600290048015610bca5780601f10610b9f57610100808354040283529160200191610bca565b820191906000526020600020905b815481529060010190602001808311610bad57829003601f168201915b505050505081565b600381815481101515610be157fe5b906000526020600020016000915090505481565b60008060009054906101000a900473ffffffffffffffffffffffffffffffffffffffff1673ffffffffffffffffffffffffffffffffffffffff163373ffffffffffffffffffffffffffffffffffffffff16141515610c5257600080fd5b600160008373ffffffffffffffffffffffffffffffffffffffff1673ffffffffffffffffffffffffffffffffffffffff16815260200190815260200160002060009054906101000a900460ff161515610d645760018060008473ffffffffffffffffffffffffffffffffffffffff1673ffffffffffffffffffffffffffffffffffffffff16815260200190815260200160002060006101000a81548160ff0219169083151502179055507fd1bba68c128cc3f427e5831b3c6f99f480b6efa6b9e80c757768f6124158cc3f82604051808273ffffffffffffffffffffffffffffffffffffffff1673ffffffffffffffffffffffffffffffffffffffff16815260200191505060405180910390a1600190505b919050565b60066020528060005260406000206000915090505481565b6000809054906101000a900473ffffffffffffffffffffffffffffffffffffffff1681565b60016020528060005260406000206000915054906101000a900460ff1681565b600160003373ffffffffffffffffffffffffffffffffffffffff1673ffffffffffffffffffffffffffffffffffffffff16815260200190815260200160002060009054906101000a900460ff161515610e1e57600080fd5b8060089080519060200190610e349291906120a3565b5050565b60008060008060008060006060600160003373ffffffffffffffffffffffffffffffffffffffff1673ffffffffffffffffffffffffffffffffffffffff16815260200190815260200160002060009054906101000a900460ff161515610e9d57600080fd5b6000975060006003805490501115610ed4576003600160038054905003815481101515610ec657fe5b906000526020600020015497505b878b111515610f4b576040517f08c379a00000000000000000000000000000000000000000000000000000000081526004018080602001828103825260118152602001807f696e76616c696420656e642065706f636800000000000000000000000000000081525060200191505060405180910390fd5b60008a51118015610f5d575088518a51145b1515610fd1576040517f08c379a000000000000000000000000000000000000000000000000000000000815260040180806020018281038252601c8152602001807f696e76616c6964206e756d626572206f6620726563697069656e74730000000081525060200191505060405180910390fd5b600188019650600094505b8951851015611285578985815181101515610ff357fe5b906020019060200201519350600460008d6000191660001916815260200190815260200160002060008573ffffffffffffffffffffffffffffffffffffffff1673ffffffffffffffffffffffffffffffffffffffff1681526020019081526020016000205492508a831015156110f7576040517f08c379a00000000000000000000000000000000000000000000000000000000081526004018080602001828103825260348152602001807f7265776172642068617320616c7265616479206265656e20646973747269627581526020017f74656420746f2074686520726563697069656e7400000000000000000000000081525060400191505060405180910390fd5b6111028b8d86611b29565b61112c898681518110151561111357fe5b9060200190602002015187611b8b90919063ffffffff16565b9550600a60009054906101000a900473ffffffffffffffffffffffffffffffffffffffff1673ffffffffffffffffffffffffffffffffffffffff16631265a7bf858d6040518363ffffffff167c0100000000000000000000000000000000000000000000000000000000028152600401808373ffffffffffffffffffffffffffffffffffffffff1673ffffffffffffffffffffffffffffffffffffffff16815260200182815260200192505050602060405180830381600087803b1580156111f357600080fd5b505af1158015611207573d6000803e3d6000fd5b505050506040513d602081101561121d57600080fd5b81019080805190602001909291905050508a8681518110151561123c57fe5b9060200190602002019073ffffffffffffffffffffffffffffffffffffffff16908173ffffffffffffffffffffffffffffffffffffffff16815250508480600101955050610fdc565b600960009054906101000a900473ffffffffffffffffffffffffffffffffffffffff1673ffffffffffffffffffffffffffffffffffffffff1663cad8d8266040518163ffffffff167c0100000000000000000000000000000000000000000000000000000000028152600401602060405180830381600087803b15801561130b57600080fd5b505af115801561131f573d6000803e3d6000fd5b505050506040513d602081101561133557600080fd5b8101908080519060200190929190505050915061135b8287611b8b90919063ffffffff16565b341415156113f7576040517f08c379a000000000000000000000000000000000000000000000000000000000815260040180806020018281038252602f8152602001807f6d6573736167652076616c756520646f6573206e6f74206d617463682074686581526020017f2073656e64696e6720616d6f756e74000000000000000000000000000000000081525060400191505060405180910390fd5b6114038c8b5188611ba7565b61140e8c888d611c22565b9050600960009054906101000a900473ffffffffffffffffffffffffffffffffffffffff1673ffffffffffffffffffffffffffffffffffffffff166302c4bc47348c8c856040518563ffffffff167c010000000000000000000000000000000000000000000000000000000002815260040180806020018060200180602001848103845287818151815260200191508051906020019060200280838360005b838110156114c85780820151818401526020810190506114ad565b50505050905001848103835286818151815260200191508051906020019060200280838360005b8381101561150a5780820151818401526020810190506114ef565b50505050905001848103825285818151815260200191508051906020019080838360005b8381101561154957808201518184015260208101905061152e565b50505050905090810190601f1680156115765780820380516001836020036101000a031916815260200191505b5096505050505050506000604051808303818588803b15801561159857600080fd5b505af11580156115ac573d6000803e3d6000fd5b50505050508b600019167f7de680eab607fdcc6137464e40d375ad63446cf255dcea9bd4a19676f7f24f56888d8d518a6040518085815260200184815260200183815260200182815260200194505050505060405180910390a2505050505050505050505050565b600160003373ffffffffffffffffffffffffffffffffffffffff1673ffffffffffffffffffffffffffffffffffffffff16815260200190815260200160002060009054906101000a900460ff16151561166c57600080fd5b80600960006101000a81548173ffffffffffffffffffffffffffffffffffffffff021916908373ffffffffffffffffffffffffffffffffffffffff16021790555050565b60025481565b6005602052816000526040600020602052806000526040600020600091509150508060000154908060010154905082565b600080600160003373ffffffffffffffffffffffffffffffffffffffff1673ffffffffffffffffffffffffffffffffffffffff16815260200190815260200160002060009054906101000a900460ff16151561174257600080fd5b600091505b825182101561184757828281518110151561175e57fe5b906020019060200201519050604080519081016040528060066000846000191660001916815260200190815260200160002054815260200160076000846000191660001916815260200190815260200160002054815250600560008360001916600019168152602001908152602001600020600086815260200190815260200160002060008201518160000155602082015181600101559050506000600660008360001916600019168152602001908152602001600020819055506000600760008360001916600019168152602001908152602001600020819055508180600101925050611747565b60038490806001815401808255809150509060018203906000526020600020016000909192909190915055507fea765738a2002a9c122906fbfa5448ff057d805a1f4ed97fc0d18aece9ba8bdf84846040518083815260200180602001828103825283818151815260200191508051906020019060200280838360005b838110156118df5780820151818401526020810190506118c4565b50505050905001935050505060405180910390a150505050565b6004602052816000526040600020602052806000526040600020600091509150505481565b6000600380549050905090565b6000806000809054906101000a900473ffffffffffffffffffffffffffffffffffffffff1673ffffffffffffffffffffffffffffffffffffffff163373ffffffffffffffffffffffffffffffffffffffff1614151561198957600080fd5b600090505b82518110156119ce576119b783828151811015156119a857fe5b90602001906020020151610bf5565b156119c157600191505b808060010191505061198e565b50919050565b6000809054906101000a900473ffffffffffffffffffffffffffffffffffffffff1673ffffffffffffffffffffffffffffffffffffffff163373ffffffffffffffffffffffffffffffffffffffff16141515611a2f57600080fd5b600073ffffffffffffffffffffffffffffffffffffffff168173ffffffffffffffffffffffffffffffffffffffff1614151515611a6b57600080fd5b8073ffffffffffffffffffffffffffffffffffffffff166000809054906101000a900473ffffffffffffffffffffffffffffffffffffffff1673ffffffffffffffffffffffffffffffffffffffff167f8be0079c531659141344cd1fd0a4f28419497f9722a3daafe3b4186f6b6457e060405160405180910390a3806000806101000a81548173ffffffffffffffffffffffffffffffffffffffff021916908373ffffffffffffffffffffffffffffffffffffffff16021790555050565b8260046000846000191660001916815260200190815260200160002060008373ffffffffffffffffffffffffffffffffffffffff1673ffffffffffffffffffffffffffffffffffffffff16815260200190815260200160002081905550505050565b60008183019050828110151515611b9e57fe5b80905092915050565b8160066000856000191660001916815260200190815260200160002060008282540192505081905550611bfe8160076000866000191660001916815260200190815260200160002054611b8b90919063ffffffff16565b60076000856000191660001916815260200190815260200160002081905550505050565b6060611c2d84611e80565b611c3684611f4c565b611c3f84611f4c565b600860405160200180807f52657761726420646973747269627574696f6e20666f7220000000000000000081525060180185805190602001908083835b602083101515611ca15780518252602082019150602081019050602083039250611c7c565b6001836020036101000a038019825116818451168082178552505050505050905001807f2066726f6d2065706f6368200000000000000000000000000000000000000000815250600c0184805190602001908083835b602083101515611d1c5780518252602082019150602081019050602083039250611cf7565b6001836020036101000a038019825116818451168082178552505050505050905001807f20746f2065706f63682000000000000000000000000000000000000000000000815250600a0183805190602001908083835b602083101515611d975780518252602082019150602081019050602083039250611d72565b6001836020036101000a038019825116818451168082178552505050505050905001807f2e20506c65617365207365652000000000000000000000000000000000000000815250600d0182805460018160011615610100020316600290048015611e385780601f10611e16576101008083540402835291820191611e38565b820191906000526020600020905b815481529060010190602001808311611e24575b5050807f20666f72207265776172642064657461696c732e00000000000000000000000081525060140194505050505060405160208183030381529060405290509392505050565b606080600060206040519080825280601f01601f191660200182016040528015611eb95781602001602082028038833980820191505090505b5091505b6020811015611f42578381602081101515611ed457fe5b1a7f0100000000000000000000000000000000000000000000000000000000000000028282815181101515611f0557fe5b9060200101907effffffffffffffffffffffffffffffffffffffffffffffffffffffffffffff1916908160001a9053508080600101915050611ebd565b8192505050919050565b60606000806060600080861415611f9a576040805190810160405280600181526020017f3000000000000000000000000000000000000000000000000000000000000000815250945061209a565b8593505b600084141515611fc4578280600101935050600a84811515611fbc57fe5b049350611f9e565b826040519080825280601f01601f191660200182016040528015611ff75781602001602082028038833980820191505090505b5091506001830390505b60008614151561209657600a8681151561201757fe5b066030017f01000000000000000000000000000000000000000000000000000000000000000282828060019003935081518110151561205257fe5b9060200101907effffffffffffffffffffffffffffffffffffffffffffffffffffffffffffff1916908160001a905350600a8681151561208e57fe5b049550612001565b8194505b50505050919050565b828054600181600116156101000203166002900490600052602060002090601f016020900481019282601f106120e457805160ff1916838001178555612112565b82800160010185558215612112579182015b828111156121115782518255916020019190600101906120f6565b5b50905061211f9190612123565b5090565b61214591905b80821115612141576000816000905550600101612129565b5090565b905600a165627a7a72305820dd40876c21060e2332123e2c94df597c525f1acea338577d348786184a9a54180029",
  "source": "pragma solidity ^0.4.24;\n\nimport './math/SafeMath.sol';\nimport './ownership/Whitelist.sol';\nimport './ForwardRegistration.sol';\n\ncontract Multisend is Ownable {\n    function sendCoin(address[] recipients, uint256[] amounts, string payload) public payable;\n    function minTips() public view returns (uint256);\n}\n\ncontract Hermes is Whitelist {\n    using SafeMath for uint256;\n\n    struct Distribution{\n        uint256 distributedCount;\n        uint256 amount;\n    }\n\n    uint256 public contractStartEpoch;\n    uint256[] public endEpochs;\n    mapping(bytes32 => mapping(address => uint256)) public recipientEpochTracker;\n    mapping(bytes32 => mapping(uint256 => Distribution)) public distributions;\n    mapping(bytes32 => uint256) public distributedCount;\n    mapping(bytes32 => uint256) public distributedAmount;\n    string public analyticsEndpoint;\n\n    Multisend public multisender;\n    ForwardRegistration public forwardRegistration;\n\n    event Distribute(uint256 startEpoch, uint256 endEpoch, bytes32 indexed delegateName, uint256 numOfRecipients, uint256 totalAmount);\n    event CommitDistributions(uint256 endEpoch, bytes32[] delegateNames);\n\n    constructor(\n        uint256 _contractStartEpoch,\n        address _multisendAddress,\n        address _forwardRegistrationAddress,\n        string _analyticsEndpoint\n    ) public {\n        addAddressToWhitelist(msg.sender);\n        contractStartEpoch = _contractStartEpoch;\n        multisender = Multisend(_multisendAddress);\n        forwardRegistration = ForwardRegistration(_forwardRegistrationAddress);\n        analyticsEndpoint = _analyticsEndpoint;\n    }\n\n    function getEndEpochCount() public view returns (uint256) {\n        return endEpochs.length;\n    }\n\n    function setMultisendAddress(address _multisendAddress) public onlyWhitelisted {\n        multisender = Multisend(_multisendAddress);\n    }\n\n    function setAnalyticsEndpoint(string _endpoint) public onlyWhitelisted {\n        analyticsEndpoint = _endpoint;\n    }\n\n    function distributeRewards(\n        bytes32 delegateName,\n        uint256 endEpoch,\n        address[] recipients,\n        uint256[] amounts\n    ) public payable onlyWhitelisted {\n        uint256 lastEpoch = 0;\n        if (endEpochs.length > 0) {\n            lastEpoch = endEpochs[endEpochs.length-1];\n        }\n        require(endEpoch > lastEpoch, \"invalid end epoch\");\n        require(recipients.length > 0 && recipients.length == amounts.length, \"invalid number of recipients\");\n        uint256 startEpoch = lastEpoch + 1;\n\n        uint256 totalAmount;\n        for (uint256 i = 0; i < recipients.length; i++) {\n            address recipient = recipients[i];\n            uint256 curEpoch = recipientEpochTracker[delegateName][recipient];\n            require(curEpoch < endEpoch, \"reward has already been distributed to the recipient\");\n            updateRecipientTracker(endEpoch, delegateName, recipient);\n            totalAmount = totalAmount.add(amounts[i]);\n            recipients[i] = forwardRegistration.getForwardAddress(recipient, endEpoch);\n        }\n\n        uint256 minTips = multisender.minTips();\n\n        require(msg.value == totalAmount.add(minTips), \"message value does not match the sending amount\");\n        updateDistributionProgress(delegateName, recipients.length, totalAmount);\n\n        string memory payload = getPayload(delegateName, startEpoch, endEpoch);\n\n        multisender.sendCoin.value(msg.value)(recipients, amounts, payload);\n\n        emit Distribute(startEpoch, endEpoch, delegateName, recipients.length, totalAmount);\n    }\n\n    function commitDistributions(uint256 endEpoch, bytes32[] delegateNames) public onlyWhitelisted {\n        for (uint256 i = 0; i < delegateNames.length; i++) {\n            bytes32 delegateName = delegateNames[i];\n            distributions[delegateName][endEpoch] = Distribution(distributedCount[delegateName], distributedAmount[delegateName]);\n            distributedCount[delegateName] = 0;\n            distributedAmount[delegateName] = 0;\n        }\n        endEpochs.push(endEpoch);\n\n        emit CommitDistributions(endEpoch, delegateNames);\n    }\n\n    function updateRecipientTracker(uint256 endEpoch, bytes32 delegateName, address recipient) internal {\n        recipientEpochTracker[delegateName][recipient] = endEpoch;\n    }\n\n    function updateDistributionProgress(bytes32 delegateName, uint256 numberOfRecipients, uint256 totalAmount) internal {\n        distributedCount[delegateName] += numberOfRecipients;\n        distributedAmount[delegateName] = distributedAmount[delegateName].add(totalAmount);\n    }\n\n    function getPayload(bytes32 delegateName, uint256 startEpoch, uint256 endEpoch) internal view returns (string) {\n        return string(abi.encodePacked(\n            \"Reward distribution for \", bytes32ToString(delegateName), \" from epoch \", uint2str(startEpoch), \" to epoch \", uint2str(endEpoch), \". Please see \", analyticsEndpoint, \" for reward details.\"\n        ));\n    }\n\n    function uint2str(uint i) internal pure returns (string) {\n        if (i == 0) {\n            return \"0\";\n        }\n        uint j = i;\n        uint length;\n        while (j != 0){\n            length++;\n            j /= 10;\n        }\n        bytes memory b = new bytes(length);\n        uint k = length - 1;\n        while (i != 0){\n            b[k--] = byte(48 + i % 10);\n            i /= 10;\n        }\n        return string(b);\n    }\n\n    function bytes32ToString(bytes32 _bytes32) internal pure returns (string) {\n        bytes memory bytesArray = new bytes(32);\n        for (uint256 i; i < 32; i++) {\n            bytesArray[i] = _bytes32[i];\n        }\n        return string(bytesArray);\n    }\n}",
  "sourcePath": "/Users/ququzone/Develop/projects/iotex/iotex-hermes/smartcontracts/contracts/Hermes.sol",
  "compiler": {
    "name": "solc",
    "version": "0.4.24+commit.e67f0147.Emscripten.clang"
  },
  "schemaVersion": "3.2.3",
  "updatedAt": "2020-09-24T07:26:56.099Z",
  "devdoc": {
    "methods": {
      "addAddressToWhitelist(address)": {
        "details": "add an address to the whitelist",
        "params": {
          "addr": "address"
        },
        "return": "true if the address was added to the whitelist, false if the address was already in the whitelist"
      },
      "addAddressesToWhitelist(address[])": {
        "details": "add addresses to the whitelist",
        "params": {
          "addrs": "addresses"
        },
        "return": "true if at least one address was added to the whitelist, false if all addresses were already in the whitelist"
      },
      "removeAddressFromWhitelist(address)": {
        "details": "remove an address from the whitelist",
        "params": {
          "addr": "address"
        },
        "return": "true if the address was removed from the whitelist, false if the address wasn't in the whitelist in the first place"
      },
      "removeAddressesFromWhitelist(address[])": {
        "details": "remove addresses from the whitelist",
        "params": {
          "addrs": "addresses"
        },
        "return": "true if at least one address was removed from the whitelist, false if all addresses weren't in the whitelist in the first place"
      },
      "transferOwnership(address)": {
        "details": "Allows the current owner to transfer control of the contract to a newOwner.",
        "params": {
          "newOwner": "The address to transfer ownership to."
        }
      }
    }
  },
  "userdoc": {
    "methods": {}
  }
}