{
  "contractName": "MultiSendMock",
  "abi": [
    {
      "constant": true,
      "inputs": [],
      "name": "owner",
      "outputs": [
        {
          "name": "",
          "type": "address"
        }
      ],
      "payable": false,
      "stateMutability": "view",
      "type": "function"
    },
    {
      "constant": true,
      "inputs": [],
      "name": "limit",
      "outputs": [
        {
          "name": "",
          "type": "uint256"
        }
      ],
      "payable": false,
      "stateMutability": "view",
      "type": "function"
    },
    {
      "constant": true,
      "inputs": [],
      "name": "minTips",
      "outputs": [
        {
          "name": "",
          "type": "uint256"
        }
      ],
      "payable": false,
      "stateMutability": "view",
      "type": "function"
    },
    {
      "constant": false,
      "inputs": [
        {
          "name": "newOwner",
          "type": "address"
        }
      ],
      "name": "transferOwnership",
      "outputs": [],
      "payable": false,
      "stateMutability": "nonpayable",
      "type": "function"
    },
    {
      "inputs": [
        {
          "name": "_minTips",
          "type": "uint256"
        },
        {
          "name": "_limit",
          "type": "uint256"
        }
      ],
      "payable": false,
      "stateMutability": "nonpayable",
      "type": "constructor"
    },
    {
      "anonymous": false,
      "inputs": [
        {
          "indexed": true,
          "name": "from",
          "type": "address"
        },
        {
          "indexed": true,
          "name": "to",
          "type": "address"
        },
        {
          "indexed": false,
          "name": "value",
          "type": "uint256"
        }
      ],
      "name": "Transfer",
      "type": "event"
    },
    {
      "anonymous": false,
      "inputs": [
        {
          "indexed": false,
          "name": "_token",
          "type": "address"
        },
        {
          "indexed": false,
          "name": "_totalAmount",
          "type": "uint256"
        },
        {
          "indexed": false,
          "name": "_tips",
          "type": "uint256"
        },
        {
          "indexed": false,
          "name": "_payload",
          "type": "string"
        }
      ],
      "name": "Receipt",
      "type": "event"
    },
    {
      "anonymous": false,
      "inputs": [
        {
          "indexed": true,
          "name": "previousOwner",
          "type": "address"
        },
        {
          "indexed": true,
          "name": "newOwner",
          "type": "address"
        }
      ],
      "name": "OwnershipTransferred",
      "type": "event"
    },
    {
      "constant": false,
      "inputs": [
        {
          "name": "recipients",
          "type": "address[]"
        },
        {
          "name": "amounts",
          "type": "uint256[]"
        },
        {
          "name": "payload",
          "type": "string"
        }
      ],
      "name": "sendCoin",
      "outputs": [],
      "payable": true,
      "stateMutability": "payable",
      "type": "function"
    }
  ],
  "bytecode": "0x608060405234801561001057600080fd5b506040516040806107728339810180604052810190808051906020019092919080519060200190929190505050336000806101000a81548173ffffffffffffffffffffffffffffffffffffffff021916908373ffffffffffffffffffffffffffffffffffffffff160217905550816001819055508060028190555050506106d68061009c6000396000f30060806040526004361061006d576000357c0100000000000000000000000000000000000000000000000000000000900463ffffffff16806302c4bc47146100725780638da5cb5b14610154578063a4d66daf146101ab578063cad8d826146101d6578063f2fde38b14610201575b600080fd5b6101526004803603810190808035906020019082018035906020019080806020026020016040519081016040528093929190818152602001838360200280828437820191505050505050919291929080359060200190820180359060200190808060200260200160405190810160405280939291908181526020018383602002808284378201915050505050509192919290803590602001908201803590602001908080601f0160208091040260200160405190810160405280939291908181526020018383808284378201915050505050509192919290505050610244565b005b34801561016057600080fd5b506101696104ed565b604051808273ffffffffffffffffffffffffffffffffffffffff1673ffffffffffffffffffffffffffffffffffffffff16815260200191505060405180910390f35b3480156101b757600080fd5b506101c0610512565b6040518082815260200191505060405180910390f35b3480156101e257600080fd5b506101eb610518565b6040518082815260200191505060405180910390f35b34801561020d57600080fd5b50610242600480360381019080803573ffffffffffffffffffffffffffffffffffffffff16906020019092919050505061051e565b005b6000808351855114151561025757600080fd5b60025485511115151561026957600080fd5b6001549150600090505b84518110156103cc576102a6848281518110151561028d57fe5b906020019060200201518361067390919063ffffffff16565b91508134101515156102b757600080fd5b84818151811015156102c557fe5b9060200190602002015173ffffffffffffffffffffffffffffffffffffffff166108fc85838151811015156102f657fe5b906020019060200201519081150290604051600060405180830381858888f1935050505015801561032b573d6000803e3d6000fd5b50848181518110151561033a57fe5b9060200190602002015173ffffffffffffffffffffffffffffffffffffffff163373ffffffffffffffffffffffffffffffffffffffff167fddf252ad1be2c89b69c2b068fc378daa952ba7f163c4a11628f55a4df523b3ef86848151811015156103a057fe5b906020019060200201516040518082815260200191505060405180910390a38080600101915050610273565b7f6a5c4f52260adc90a8637fe2d8fbbc4141b625fa6840fca5f3e5cef6a4992293306104036001548561069190919063ffffffff16565b61042a610419863461069190919063ffffffff16565b60015461067390919063ffffffff16565b86604051808573ffffffffffffffffffffffffffffffffffffffff1673ffffffffffffffffffffffffffffffffffffffff16815260200184815260200183815260200180602001828103825283818151815260200191508051906020019080838360005b838110156104a957808201518184015260208101905061048e565b50505050905090810190601f1680156104d65780820380516001836020036101000a031916815260200191505b509550505050505060405180910390a15050505050565b6000809054906101000a900473ffffffffffffffffffffffffffffffffffffffff1681565b60025481565b60015481565b6000809054906101000a900473ffffffffffffffffffffffffffffffffffffffff1673ffffffffffffffffffffffffffffffffffffffff163373ffffffffffffffffffffffffffffffffffffffff1614151561057957600080fd5b600073ffffffffffffffffffffffffffffffffffffffff168173ffffffffffffffffffffffffffffffffffffffff16141515156105b557600080fd5b8073ffffffffffffffffffffffffffffffffffffffff166000809054906101000a900473ffffffffffffffffffffffffffffffffffffffff1673ffffffffffffffffffffffffffffffffffffffff167f8be0079c531659141344cd1fd0a4f28419497f9722a3daafe3b4186f6b6457e060405160405180910390a3806000806101000a81548173ffffffffffffffffffffffffffffffffffffffff021916908373ffffffffffffffffffffffffffffffffffffffff16021790555050565b600080828401905083811015151561068757fe5b8091505092915050565b600082821115151561069f57fe5b8183039050929150505600a165627a7a7230582066b300df148bb9f858c1bff6b96430d536efb9ec93ca8ba57226aa550a7447f60029",
  "source": "pragma solidity ^0.4.24;\n\nimport '../ownership/Ownable.sol';\n\n/**\n * @title SafeMath\n * @dev Math operations with safety checks that throw on error\n */\nlibrary SafeMath {\n  function mul(uint256 a, uint256 b) internal constant returns (uint256) {\n    uint256 c = a * b;\n    assert(a == 0 || c / a == b);\n    return c;\n  }\n\n  function div(uint256 a, uint256 b) internal constant returns (uint256) {\n    // assert(b > 0); // Solidity automatically throws when dividing by 0\n    uint256 c = a / b;\n    // assert(a == b * c + a % b); // There is no case in which this doesn't hold\n    return c;\n  }\n\n  function sub(uint256 a, uint256 b) internal constant returns (uint256) {\n    assert(b <= a);\n    return a - b;\n  }\n\n  function add(uint256 a, uint256 b) internal constant returns (uint256) {\n    uint256 c = a + b;\n    assert(c >= a);\n    return c;\n  }\n}\n\ncontract MultiSendMock is Ownable {\n    using SafeMath for uint256;\n\n    uint256 public minTips;\n    uint256 public limit;\n\n    event Transfer(address indexed from, address indexed to, uint256 value);\n    event Receipt(address _token, uint256 _totalAmount, uint256 _tips, string _payload);\n\n    constructor(uint256 _minTips, uint256 _limit) public {\n        minTips = _minTips;\n        limit = _limit;\n    }\n\n    function sendCoin(address[] recipients, uint256[] amounts, string payload) public payable {\n        require(recipients.length == amounts.length);\n        require(recipients.length <= limit);\n        uint256 totalAmount = minTips;\n        for (uint256 i = 0; i < recipients.length; i++) {\n            totalAmount = totalAmount.add(amounts[i]);\n            require(msg.value >= totalAmount);\n            recipients[i].transfer(amounts[i]);\n            emit Transfer(msg.sender, recipients[i], amounts[i]);\n        }\n        emit Receipt(address(this), totalAmount.sub(minTips), minTips.add(msg.value.sub(totalAmount)), payload);\n    }\n}\n\n\n\n",
  "sourcePath": "/Users/ququzone/Develop/projects/iotex/iotex-hermes/smartcontracts/contracts/mock/MultiSendMock.sol",
  "compiler": {
    "name": "solc",
    "version": "0.4.24+commit.e67f0147.Emscripten.clang"
  },
  "schemaVersion": "3.2.3",
  "updatedAt": "2020-09-24T07:26:56.119Z",
  "devdoc": {
    "methods": {
      "transferOwnership(address)": {
        "details": "Allows the current owner to transfer control of the contract to a newOwner.",
        "params": {
          "newOwner": "The address to transfer ownership to."
        }
      }
    }
  },
  "userdoc": {
    "methods": {}
  }
}